:100000000C9446000C9465000C9465000C946500FB
:100010000C9465000C9465000C9465000C946500CC
:100020000C9465000C9465000C9465000C946500BC
:100030000C9465000C940C010C9465000C94650004
:100040000C9465000C9465000C9465000C9465009C
:100050000C9465000C9465000C9465000C9465008C
:100060000C9465000C9465000C9465000C9465007C
:100070000C9465000C9465000C9465000C9465006C
:100080000C9465000C9465000C94650011241FBE4F
:10009000CFEFD0E4DEBFCDBF11E0A0E0B1E0EAEBEE
:1000A000F9E000E00BBF02C007900D92A231B1074A
:1000B000D9F721E0A2E1B1E001C01D92A232B2075E
:1000C000E1F70E9452030C94DB040C940000CF93E0
:1000D000DF9300D01F92CDB7DEB789837B836A831D
:1000E00089818A3031F48A819B81BC018DE00E9434
:1000F000670080EC90E0FC018081882F90E08072A6
:100100009927892BB1F386EC90E02981FC012083AB
:1001100080E090E00F900F900F90DF91CF910895C5
:10012000CF93DF9300D000D0CDB7DEB769837A8359
:100130008B839C8389819A81AB81BC8180930E01E2
:1001400090930F01A0931001B093110180910E01C3
:1001500090910F01A0911001B091110180931301B2
:1001600090931401A0931501B093160100000F9015
:100170000F900F900F90DF91CF910895CF93DF9361
:10018000CDB7DEB781E890E02BE0FC01208388E862
:1001900090E02DE730E0FC01318320838FE690E092
:1001A00022E0FC01208384E890E0FC0111821082AF
:1001B00080910E0190910F01A0911001B091110159
:1001C0008093130190931401A0931501B09316012D
:1001D0008FE590E02FE530E0F90120812068FC01F7
:1001E00020830000DF91CF910895CF93DF93CDB7A7
:1001F000DEB781E890E0FC0110820000DF91CF9132
:100200000895CF93DF93CDB7DEB781E080931201DD
:100210000000DF91CF9108951F920F9200905F0030
:100220000F92112400905B000F922F933F934F93F6
:100230005F936F937F938F939F93AF93BF93EF934E
:10024000FF93CF93DF93CDB7DEB7809113019091E9
:100250001401A0911501B09116010197A109B109EE
:100260008093130190931401A0931501B09316018C
:100270008091130190911401A0911501B091160184
:10028000892B8A2B8B2B91F40E94010180910E0106
:1002900090910F01A0911001B09111018093130171
:1002A00090931401A0931501B09316010000DF9103
:1002B000CF91FF91EF91BF91AF919F918F917F91DE
:1002C0006F915F914F913F912F910F9000925B0042
:1002D0000F9000925F000F901F901895CF93DF93BF
:1002E00000D01F92CDB7DEB789836A834B838B81A1
:1002F000882371F08A81282F30E081E090E002C0ED
:10030000880F991F2A95E2F7982F8981892B0EC0B3
:100310008A81282F30E081E090E002C0880F991F89
:100320002A95E2F7982F9095898189230F900F9055
:100330000F90DF91CF910895CF93DF9300D0CDB789
:10034000DEB789836A838A81282F30E081E090E0DC
:1003500002C0880F991F2A95E2F7982F8981892377
:100360000F900F90DF91CF9108950F931F93CF932C
:10037000DF93CDB7DEB708E210E040E064E08FEF36
:100380000E946E01F8018083000086E290E0FC018B
:100390008081809560E00E949C01882311F081E3B8
:1003A000D3C086E290E0FC018081809561E00E94EC
:1003B0009C01882311F084E3C7C086E290E0FC0131
:1003C0008081809562E00E949C01882311F087E380
:1003D000BBC086E290E0FC018081809563E00E94D2
:1003E0009C01882311F08AE2AFC008E210E040E0EF
:1003F00065E08FEF0E946E01F8018083000086E2C5
:1004000090E0FC018081809560E00E949C0188233F
:1004100011F082E399C086E290E0FC018081809532
:1004200061E00E949C01882311F085E38DC086E283
:1004300090E0FC018081809562E00E949C0188230D
:1004400011F088E381C086E290E0FC018081809514
:1004500063E00E949C01882311F080E375C008E2EC
:1004600010E040E066E08FEF0E946E01F8018083AB
:10047000000086E290E0FC018081809560E00E94AF
:100480009C01882311F083E35FC086E290E0FC01C9
:100490008081809561E00E949C01882311F086E3B1
:1004A00053C086E290E0FC018081809562E00E946A
:1004B0009C01882311F089E347C086E290E0FC01AB
:1004C0008081809563E00E949C01882311F083E283
:1004D0003BC008E210E040E067E08FEF0E946E0151
:1004E000F8018083000086E290E0FC018081809525
:1004F00060E00E949C01882311F081E425C086E21F
:1005000090E0FC018081809561E00E949C0188233D
:1005100011F082E419C086E290E0FC0180818095B0
:1005200062E00E949C01882311F083E40DC086E202
:1005300090E0FC018081809563E00E949C0188230B
:1005400011F084E401C080E0DF91CF911F910F9101
:100550000895CF93DF93CDB7DEB72C970FB6F894FD
:10056000DEBF0FBECDBF6D837E838F8398872987C3
:100570003A874B875C878D819E81AF81B8852985BD
:100580003A854B855C85BC01CD010E94B904DC0134
:10059000CB0189839A83AB83BC8389819A81AB81A8
:1005A000BC81892B8A2B8B2B29F489859A85AB8575
:1005B000BC8511C089859A85AB85BC858D839E835A
:1005C000AF83B88789819A81AB81BC8189879A87FB
:1005D000AB87BC87D0CFBC01CD012C960FB6F89469
:1005E000DEBF0FBECDBFDF91CF910895CF93DF93D4
:1005F00000D01F92CDB7DEB79B838A830E94B501DE
:1006000089838A819B818130910551F082309105E7
:10061000A1F0892BF9F481E090E09B838A831FC0CD
:100620008981882329F481E090E09B838A8317C025
:1006300082E090E09B838A8312C08981882329F419
:1006400081E090E09B838A830AC082E090E09B83F4
:100650008A8305C081E090E09B838A8300008A81C1
:100660009B818130910559F08230910569F0892B89
:1006700009F010C085E290E0FC0110820BC085E219
:1006800090E0FC01108206C085E290E020E8FC01C9
:10069000208300008A819B810F900F900F90DF9143
:1006A000CF9108950F931F93CF93DF93CDB7DEB70C
:1006B00061970FB6F894DEBF0FBECDBF84E290E025
:1006C0002FEFFC01208385E290E0FC01108287E29D
:1006D00090E020EFFC01208388E290E02FE0FC0115
:1006E000208387E191E0998B888B81E090E09E8761
:1006F0008D878FEF8F878F858093170182E390E03E
:10070000A0E0B0E08093180190931901A0931A0122
:10071000B0931B018091180190911901A0911A01C9
:10072000B0911B0180931C0190931D01A0931E01A9
:10073000B0931F0186EF92E09093210180932001F6
:1007400088899989FC0181819281A381B4818983FF
:100750009A83AB83BC8381E090E0A0E0B0E08D831E
:100760009E83AF83B8872BC08D819E81880F991F90
:100770009E012F5F3F4F820F931F0F96FC018081D8
:100780009181FC01218132814381548189819A8147
:10079000AB81BC81BC01CD010E94A902DC01CB016F
:1007A00089839A83AB83BC838D819E81AF81B88519
:1007B0000196A11DB11D8D839E83AF83B8878D8562
:1007C0009E859C0140E050E08D819E81AF81B8857F
:1007D00082179307A407B50738F289819A81AB8104
:1007E000BC81BC01CD010E9490000E94BE00198610
:1007F0001A861B861C86A6C089859A85880F991F34
:100800009E012F5F3F4F820F931F0F96FC01808147
:100810009181FC01258136814781508589859A85A2
:10082000880F991FBE016F5F7F4F860F971F0F962E
:10083000FC0180819181FC0181819281A381B4813D
:10084000281739074A075B0709F045C089859A854B
:10085000880F991F9E012F5F3F4F820F931F0F96A6
:10086000FC010081118189859A85880F991F9E015D
:100870002F5F3F4F820F931F0F96FC018081918164
:10088000FC012185328589859A85880F991FAE01E3
:100890004F5F5F4F840F951F0F96FC018081918100
:1008A000FC018081082E000C990BF9010995F801D3
:1008B000808389859A85880F991F9E012F5F3F4FFE
:1008C000820F931F0F96FC0180819181FC0115829C
:1008D00016821782108689859A85880F991F9E0136
:1008E0002F5F3F4F820F931F0F96FC016081718134
:1008F00089859A85880F991F9E012F5F3F4F820F30
:10090000931F0F96FC0180819181FC012581368126
:100910004781508589819A81AB81BC81820F931F69
:10092000A41FB51FFB0185839683A783B0878985A4
:100930009A85AB85BC850196A11DB11D89879A87D3
:10094000AB87BC878D859E859C0140E050E0898502
:100950009A85AB85BC8582179307A407B50708F471
:100960004BCF0000809112018823E1F31092120115
:100970003ECFA1E21A2EAA1BBB1BFD010DC0AA1F70
:10098000BB1FEE1FFF1FA217B307E407F50720F0F8
:10099000A21BB30BE40BF50B661F771F881F991F73
:1009A0001A9469F760957095809590959B01AC01BC
:0A09B000BD01CF010895F894FFCFB8
:1009BA0000000002000000006700000000000100C3
:0209CA0000002B
:00000001FF
