:100000000C9454000C9473000C9473000C947300C3
:100010000C9473000C9473000C9473000C94730094
:100020000C9473000C9473000C9473000C94730084
:100030000C9473000C941A010C9473000C947300CC
:100040000C9473000C9473000C9473000C94730064
:100050000C9473000C9473000C9473000C94730054
:100060000C9473000C9473000C9473000C94730044
:100070000C9473000C9473000C9473000C94730034
:100080000C9473000C9473000C9473002B033003D6
:100090003D0352035F03740381039603A303B80374
:1000A000C503DA03E703FC0311241FBECFEFD0E43E
:1000B000DEBFCDBF11E0A0E0B1E0E0ECFCE000E08D
:1000C0000BBF02C007900D92A831B107D9F721E00C
:1000D000A8E1B1E001C01D92A034B207E1F70E948F
:1000E0007E040C945E060C940000CF93DF9300D046
:1000F0001F92CDB7DEB789837B836A8389818A307B
:1001000031F48A819B81BC018DE00E94750080ECF6
:1001100090E0FC018081882F90E080729927892BE4
:10012000B1F386EC90E02981FC01208380E090E02F
:100130000F900F900F90DF91CF910895CF93DF93A1
:1001400000D000D0CDB7DEB769837A838B839C83E0
:1001500089819A81AB81BC8180930E0190930F01BC
:10016000A0931001B093110180910E0190910F01A5
:10017000A0911001B09111018093190190931A017F
:10018000A0931B01B0931C0100000F900F900F90E3
:100190000F90DF91CF910895CF93DF93CDB7DEB766
:1001A00081E890E02BE0FC01208388E890E02DE7D7
:1001B00030E0FC01318320838FE690E022E0FC01F7
:1001C000208384E890E0FC011182108280910E016E
:1001D00090910F01A0911001B0911101809319012C
:1001E00090931A01A0931B01B0931C018FE590E03E
:1001F0002FE530E0F90120812068FC012083000018
:10020000DF91CF910895CF93DF93CDB7DEB781E82B
:1002100090E0FC0110820000DF91CF910895CF9310
:10022000DF93CDB7DEB781E0809318010000DF9146
:10023000CF9108951F920F9200905F000F921124AA
:1002400000905B000F922F933F934F935F936F93B8
:100250007F938F939F93AF93BF93EF93FF93CF932E
:10026000DF93CDB7DEB78091190190911A01A0916B
:100270001B01B0911C010197A109B10980931901DB
:1002800090931A01A0931B01B0931C018091190156
:1002900090911A01A0911B01B0911C01892B8A2B0E
:1002A0008B2B91F40E940F0180910E0190910F0110
:1002B000A0911001B09111018093190190931A013E
:1002C000A0931B01B0931C010000DF91CF91FF911F
:1002D000EF91BF91AF919F918F917F916F915F91BE
:1002E0004F913F912F910F9000925B000F900092E1
:1002F0005F000F901F901895CF93DF9300D01F924F
:10030000CDB7DEB789836A834B838B81882371F0F5
:100310008A81282F30E081E090E002C0880F991F89
:100320002A95E2F7982F8981892B0EC08A81282F80
:1003300030E081E090E002C0880F991F2A95E2F733
:10034000982F9095898189230F900F900F90DF91BE
:10035000CF910895CF93DF9300D0CDB7DEB78983D7
:100360006A838A81282F30E081E090E002C0880F04
:10037000991F2A95E2F7982F898189230F900F9072
:10038000DF91CF9108950F931F93CF93DF93CDB754
:10039000DEB708E210E040E064E08FEF0E947C01ED
:1003A000F8018083000086E290E0FC018081809566
:1003B00060E00E94AA01882311F081E3D3C086E2A5
:1003C00090E0FC018081809561E00E94AA01882371
:1003D00011F084E3C7C086E290E0FC018081809543
:1003E00062E00E94AA01882311F087E3BBC086E285
:1003F00090E0FC018081809563E00E94AA0188233F
:1004000011F08AE2AFC008E210E040E065E08FEF53
:100410000E947C01F8018083000086E290E0FC01EC
:100420008081809560E00E94AA01882311F082E318
:1004300099C086E290E0FC018081809561E00E9495
:10044000AA01882311F085E38DC086E290E0FC01CB
:100450008081809562E00E94AA01882311F088E3E0
:1004600081C086E290E0FC018081809563E00E947B
:10047000AA01882311F080E375C008E210E040E093
:1004800066E08FEF0E947C01F8018083000086E225
:1004900090E0FC018081809560E00E94AA018823A1
:1004A00011F083E35FC086E290E0FC0180818095DB
:1004B00061E00E94AA01882311F086E353C086E21E
:1004C00090E0FC018081809562E00E94AA0188236F
:1004D00011F089E347C086E290E0FC0180818095BD
:1004E00063E00E94AA01882311F083E23BC008E286
:1004F00010E040E067E08FEF0E947C01F80180830C
:10050000000086E290E0FC018081809560E00E941E
:10051000AA01882311F081E425C086E290E0FC0165
:100520008081809561E00E94AA01882311F082E415
:1005300019C086E290E0FC018081809562E00E9413
:10054000AA01882311F083E40DC086E290E0FC014B
:100550008081809563E00E94AA01882311F084E4E1
:1005600001C080E0DF91CF911F910F910895CF934B
:10057000DF93CDB7DEB72C970FB6F894DEBF0FBE72
:10058000CDBF6D837E838F83988729873A874B877A
:100590005C878D819E81AF81B88529853A854B85A1
:1005A0005C85BC01CD010E943306DC01CB0189834F
:1005B0009A83AB83BC8389819A81AB81BC81892B6F
:1005C0008A2B8B2B29F489859A85AB85BC8511C034
:1005D00089859A85AB85BC858D839E83AF83B887DB
:1005E00089819A81AB81BC8189879A87AB87BC87D7
:1005F000D0CFBC01CD012C960FB6F894DEBF0FBE54
:10060000CDBFDF91CF910895CF93DF9300D000D07D
:10061000CDB7DEB79C838B830E94C301898383E2BD
:1006200090E0FC018081809580788A838B819C8119
:10063000092E000CAA0BBB0B40E050E02DE030E08F
:10064000841B950B2817390708F4E3C08A5B9F4F7A
:10065000FC010C94550681E090E09C838B83DEC006
:100660008981833229F482E090E09C838B83D6C019
:1006700081E090E09C838B83D1C08981833229F40F
:1006800082E090E09C838B83C9C08981882329F410
:1006900083E090E09C838B83C1C081E090E09C83E9
:1006A0008B83BCC08981813329F484E090E09C83F2
:1006B0008B83B4C083E090E09C838B83AFC089813F
:1006C000813329F484E090E09C838B83A7C08981E7
:1006D000882329F485E090E09C838B839FC081E090
:1006E00090E09C838B839AC08981823329F486E0D1
:1006F00090E09C838B8392C085E090E09C838B8309
:100700008DC08981823329F486E090E09C838B83BD
:1007100085C08981882329F487E090E09C838B83BE
:100720007DC081E090E09C838B8378C08981833396
:1007300029F488E090E09C838B8370C087E090E090
:100740009C838B836BC08981833329F488E090E09C
:100750009C838B8363C08981882329F489E090E09E
:100760009C838B835BC081E090E09C838B8356C02D
:100770008981843329F48AE090E09C838B834EC086
:1007800089E090E09C838B8349C08981843329F47C
:100790008AE090E09C838B8341C08981882329F47F
:1007A0008BE090E09C838B8339C081E090E09C8358
:1007B0008B8334C08981853329F48CE090E09C835D
:1007C0008B832CC08BE090E09C838B8327C0898136
:1007D000853329F48CE090E09C838B831FC0898152
:1007E000882329F48DE090E09C838B8317C081E0FF
:1007F00090E09C838B8312C08A81882329F081E05A
:1008000090E09C838B830AC08DE090E09C838B8377
:1008100005C081E090E09C838B8300008B819C81EC
:100820000D9721F481E080931E0100008B819C8153
:100830000F900F900F900F90DF91CF910895CF936D
:10084000DF9300D01F92CDB7DEB79B838A8383E20C
:1008500090E0FC0180818095807889838A819B81EA
:10086000009719F0019761F013C08981803829F44D
:1008700081E090E09B838A830FC01B821A820CC0A8
:100880008981803841F481E090E09B838A8303C0B2
:100890001B821A8201C000008A819B81009719F097
:1008A000019729F007C081E080931D0103C01092D9
:1008B0001D0100008A819B810F900F900F90DF91A6
:1008C000CF910895CF93DF9300D0CDB7DEB79A8351
:1008D000898389819A81892B51F485E290E0309156
:1008E0001E0120911D012323FC012083000089812A
:1008F0009A810F900F90DF91CF9108950F931F93DE
:10090000CF93DF93CDB7DEB765970FB6F894DEBF10
:100910000FBECDBF84E290E02FE7FC01208385E28B
:1009200090E020E8FC01208387E290E020EFFC01CA
:10093000208388E290E02FE0FC01208386E0E2E162
:10094000F1E0DE01509601900D928A95E1F783E087
:1009500090E09E878D878FEF8F878F8580931F0113
:1009600088EC90E0A0E0B0E080932001909321011A
:10097000A0932201B0932301809120019091210145
:10098000A0912201B091230180932401909325012D
:10099000A0932601B093270184E093E0909329016E
:1009A0008093280110922A0188EC90E0A0E0B0E04A
:1009B00080932B0190932C01A0932D01B0932E01D5
:1009C00080912B0190912C01A0912D01B0912E01CD
:1009D00080932F0190933001A0933101B0933201A5
:1009E0008FE194E0909334018093330110923501AC
:1009F00088EC90E0A0E0B0E080933601909337015E
:100A0000A0933801B093390180913601909137015C
:100A1000A0913801B091390180933A0190933B0144
:100A2000A0933C01B0933D0182E694E090933F0196
:100A300080933E0188899989FC0181819281A381FB
:100A4000B48189839A83AB83BC8381E090E0A0E08A
:100A5000B0E08D839E83AF83B8872BC08D819E814C
:100A6000880F991F9E012F5F3F4F820F931F0F9694
:100A7000FC0180819181FC0121813281438154817B
:100A800089819A81AB81BC81BC01CD010E94B702F2
:100A9000DC01CB0189839A83AB83BC838D819E81EA
:100AA000AF81B8850196A11DB11D8D839E83AF8353
:100AB000B8878D859E859C0140E050E08D819E81A8
:100AC000AF81B88582179307A407B50738F28981EB
:100AD0009A81AB81BC81BC01CD010E949E000E9425
:100AE000CC0019861A861B861C86A6C089859A8525
:100AF000880F991F9E012F5F3F4F820F931F0F9604
:100B0000FC0180819181FC012581368147815085DE
:100B100089859A85880F991FBE016F5F7F4F860F69
:100B2000971F0F96FC0180819181FC018181928148
:100B3000A381B481281739074A075B0709F045C02C
:100B400089859A85880F991F9E012F5F3F4F820FDD
:100B5000931F0F96FC010081118189859A85880F6A
:100B6000991F9E012F5F3F4F820F931F0F96FC012D
:100B700080819181FC012185328589859A85880F44
:100B8000991FAE014F5F5F4F840F951F0F96FC01B9
:100B900080819181FC018081082E000C990BF90164
:100BA0000995F801808389859A85880F991F9E0190
:100BB0002F5F3F4F820F931F0F96FC018081918121
:100BC000FC01158216821782108689859A85880F06
:100BD000991F9E012F5F3F4F820F931F0F96FC01BD
:100BE0006081718189859A85880F991F9E012F5F89
:100BF0003F4F820F931F0F96FC0180819181FC0172
:100C0000258136814781508589819A81AB81BC815C
:100C1000820F931FA41FB51FFB0185839683A783B3
:100C2000B08789859A85AB85BC850196A11DB11DCC
:100C300089879A87AB87BC878D859E859C0140E01C
:100C400050E089859A85AB85BC8582179307A407F8
:100C5000B50708F44BCF0000809118018823E1F319
:100C6000109218013ECFA1E21A2EAA1BBB1BFD0158
:100C70000DC0AA1FBB1FEE1FFF1FA217B307E4077B
:100C8000F50720F0A21BB30BE40BF50B661F771FD3
:100C9000881F991F1A9469F76095709580959095B3
:100CA0009B01AC01BD01CF010895EE0FFF1F002491
:100CB000001C0BBE0790F691E02D0994F894FFCF2D
:100CC00000000002000000007500000000000100AC
:080CD00000001F012A0135019B
:00000001FF
