:100000000C9454000C9473000C9473000C947300C3
:100010000C9473000C9473000C9473000C94730094
:100020000C9473000C9473000C9473000C94730084
:100030000C9473000C941A010C9473000C947300CC
:100040000C9473000C9473000C9473000C94730064
:100050000C9473000C9473000C9473000C94730054
:100060000C9473000C9473000C9473000C94730044
:100070000C9473000C9473000C9473000C94730034
:100080000C9473000C9473000C947300EB03F00356
:10009000FD0312041F04340441045604630478046D
:1000A00085049A04A704BC0411241FBECFEFD0E43A
:1000B000DEBFCDBF11E0A0E0B1E0E2E3F3E100E09C
:1000C0000BBF02C007900D92AE33B107D9F721E004
:1000D000AEE3B1E001C01D92A837B207E1F70E947C
:1000E000F4050C9497090C940000CF93DF9300D093
:1000F0001F92CDB7DEB789837B836A8389818A307B
:1001000031F48A819B81BC018DE00E94750080ECF6
:1001100090E0FC018081882F90E080729927892BE4
:10012000B1F386EC90E02981FC01208380E090E02F
:100130000F900F900F90DF91CF910895CF93DF93A1
:1001400000D000D0CDB7DEB769837A838B839C83E0
:1001500089819A81AB81BC8180930E0190930F01BC
:10016000A0931001B093110180910E0190910F01A5
:10017000A0911001B091110180933F019093400133
:10018000A0934101B093420100000F900F900F9097
:100190000F90DF91CF910895CF93DF93CDB7DEB766
:1001A00081E890E02BE0FC01208388E890E02DE7D7
:1001B00030E0FC01318320838FE690E022E0FC01F7
:1001C000208384E890E0FC011182108280910E016E
:1001D00090910F01A0911001B091110180933F0106
:1001E00090934001A0934101B09342018FE590E0CC
:1001F0002FE530E0F90120812068FC012083000018
:10020000DF91CF910895CF93DF93CDB7DEB781E82B
:1002100090E0FC0110820000DF91CF910895CF9310
:10022000DF93CDB7DEB781E080933E010000DF9120
:10023000CF9108951F920F9200905F000F921124AA
:1002400000905B000F922F933F934F935F936F93B8
:100250007F938F939F93AF93BF93EF93FF93CF932E
:10026000DF93CDB7DEB780913F0190914001A0911F
:100270004101B09142010197A109B10980933F0169
:1002800090934001A0934101B093420180913F01BE
:1002900090914001A0914101B0914201892B8A2B9C
:1002A0008B2B91F40E940F0180910E0190910F0110
:1002B000A0911001B091110180933F0190934001F2
:1002C000A0934101B09342010000DF91CF91FF91D3
:1002D000EF91BF91AF919F918F917F916F915F91BE
:1002E0004F913F912F910F9000925B000F900092E1
:1002F0005F000F901F901895CF93DF9300D01F924F
:10030000CDB7DEB789836A834B838B81882371F0F5
:100310008A81282F30E081E090E002C0880F991F89
:100320002A95E2F7982F8981892B0EC08A81282F80
:1003300030E081E090E002C0880F991F2A95E2F733
:10034000982F9095898189230F900F900F90DF91BE
:10035000CF910895CF93DF9300D0CDB7DEB78983D7
:100360006A838A81282F30E081E090E002C0880F04
:10037000991F2A95E2F7982F898189230F900F9072
:10038000DF91CF9108950F931F93CF93DF93CDB754
:10039000DEB708E210E040E064E08FEF0E947C01ED
:1003A000F8018083000086E290E0FC018081809566
:1003B00060E00E94AA01882311F081E3D3C086E2A5
:1003C00090E0FC018081809561E00E94AA01882371
:1003D00011F084E3C7C086E290E0FC018081809543
:1003E00062E00E94AA01882311F087E3BBC086E285
:1003F00090E0FC018081809563E00E94AA0188233F
:1004000011F08AE2AFC008E210E040E065E08FEF53
:100410000E947C01F8018083000086E290E0FC01EC
:100420008081809560E00E94AA01882311F082E318
:1004300099C086E290E0FC018081809561E00E9495
:10044000AA01882311F085E38DC086E290E0FC01CB
:100450008081809562E00E94AA01882311F088E3E0
:1004600081C086E290E0FC018081809563E00E947B
:10047000AA01882311F080E375C008E210E040E093
:1004800066E08FEF0E947C01F8018083000086E225
:1004900090E0FC018081809560E00E94AA018823A1
:1004A00011F083E35FC086E290E0FC0180818095DB
:1004B00061E00E94AA01882311F086E353C086E21E
:1004C00090E0FC018081809562E00E94AA0188236F
:1004D00011F089E347C086E290E0FC0180818095BD
:1004E00063E00E94AA01882311F083E23BC008E286
:1004F00010E040E067E08FEF0E947C01F80180830C
:10050000000086E290E0FC018081809560E00E941E
:10051000AA01882311F081E425C086E290E0FC0165
:100520008081809561E00E94AA01882311F082E415
:1005300019C086E290E0FC018081809562E00E9413
:10054000AA01882311F083E40DC086E290E0FC014B
:100550008081809563E00E94AA01882311F084E4E1
:1005600001C080E0DF91CF911F910F910895CF934B
:10057000DF93CDB7DEB72C970FB6F894DEBF0FBE72
:10058000CDBF6D837E838F83988729873A874B877A
:100590005C878D819E81AF81B88529853A854B85A1
:1005A0005C85BC01CD010E94D807DC01CB018983A9
:1005B0009A83AB83BC8389819A81AB81BC81892B6F
:1005C0008A2B8B2B29F489859A85AB85BC8511C034
:1005D00089859A85AB85BC858D839E83AF83B887DB
:1005E00089819A81AB81BC8189879A87AB87BC87D7
:1005F000D0CFBC01CD012C960FB6F894DEBF0FBE54
:10060000CDBFDF91CF9108950F931F93CF93DF93C9
:1006100000D000D0CDB7DEB769837A838B839C830B
:100620008091480190914901A0914A01B0914B01FC
:100630009C01AD0169817A818B819C810E940308B4
:10064000882309F477C020E030E0A90169817A812C
:100650008B819C810E940308882351F481E990E0FA
:1006600021E930E0F90120812870FC01208309C0D4
:1006700081E990E021E930E0F90120812360FC016B
:10068000208328E539E344E75FE369817A818B8140
:100690009C810E940308882344F488E990E02FEFAE
:1006A0003FEFFC013183208334C020E034E244EF8B
:1006B00056E469817A818B819C810E9425091816F4
:1006C00034F488E990E0FC011182108222C008E92C
:1006D00010E020E030E040E053E469817A818B81D2
:1006E0009C810E942A09DC01CB019C01AD0160E0E4
:1006F00074E284EF9AE40E940808DC01CB01BC019B
:10070000CD010E947A08DC01CB010197F8019183A9
:10071000808384E990E0FC011182108289819A81B2
:10072000AB81BC818093480190934901A0934A0119
:10073000B0934B0100000F900F900F900F90DF913E
:10074000CF911F910F910895CF93DF93CDB7DEB76F
:1007500080E990E020E4FC01208381E990E02BE037
:10076000FC01208360E070E0CB010E9404030000E4
:10077000DF91CF910895CF93DF93CDB7DEB780E9B6
:1007800090E0FC01108281E990E0FC011082000001
:10079000DF91CF910895CF93DF9300D01F92CDB713
:1007A000DEB79B838A830E94C30189838A819B81F0
:1007B000092E000CAA0BBB0B40E050E02DE030E00E
:1007C000841B950B2817390708F4E6C08A5B9F4FF6
:1007D000FC010C94FA0781E090E09B838A83E1C0DE
:1007E0008981833229F482E090E09B838A83D9C097
:1007F00081E090E09B838A83D4C08981833229F48D
:1008000082E090E09B838A83CCC08981882329F48D
:1008100083E090E09B838A83C4C081E090E09B8367
:100820008A83BFC08981813329F484E090E09B836F
:100830008A83B7C083E090E09B838A83B2C08981BA
:10084000813329F484E090E09B838A83AAC0898164
:10085000882329F485E090E09B838A83A2C081E00D
:1008600090E09B838A839DC08981823329F486E04E
:1008700090E09B838A8395C085E090E09B838A8388
:1008800090C08981823329F486E090E09B838A833B
:1008900088C08981882329F487E090E09B838A833C
:1008A00080C081E090E09B838A837BC08981833311
:1008B00029F488E090E09B838A8373C087E090E00E
:1008C0009B838A836EC08981833329F488E090E01A
:1008D0009B838A8366C08981882329F489E090E01C
:1008E0009B838A835EC081E090E09B838A8359C0AA
:1008F0008981843329F48AE090E09B838A8351C004
:1009000089E090E09B838A834CC08981843329F4F9
:100910008AE090E09B838A8344C08981882329F4FC
:100920008BE090E09B838A833CC081E090E09B83D6
:100930008A8337C08981853329F48CE090E09B83DA
:100940008A832FC08BE090E09B838A832AC08981B1
:10095000853329F48CE090E09B838A8322C08981CF
:10096000882329F48DE090E09B838A831AC081E07C
:1009700090E09B838A8315C085E290E0FC01808132
:10098000882329F481E090E09B838A830AC08DE06C
:1009900090E09B838A8305C081E090E09B838A83FB
:1009A00000008A819B810D9721F481E080934401AE
:1009B00000008A819B810F900F900F90DF91CF9163
:1009C0000895CF93DF9300D01F92CDB7DEB79B83FE
:1009D0008A8380E290E0FC018081882F90E0817022
:1009E000992721E0892B09F020E029838A819B81C6
:1009F000009719F0019761F013C08981882329F0CD
:100A000081E090E09B838A830FC01B821A820CC016
:100A10008981882341F081E090E09B838A8303C031
:100A20001B821A8201C000008A819B81009719F005
:100A3000019729F007C081E08093430103C0109221
:100A4000430100008A819B810F900F900F90DF91EE
:100A5000CF910895CF93DF9300D0CDB7DEB79A83BF
:100A6000898389819A818130910591F08230910545
:100A70001CF4892B41F058C082309105D9F00397BE
:100A800009F447C051C081E090E09A83898352C045
:100A900010924501109246011092470180E290E0C9
:100AA000FC01808188230CF442C082E090E09A83AC
:100AB00089833DC080914501863029F483E090E030
:100AC0009A83898304C082E090E09A83898380912D
:100AD0004701282F30E080914601882F90E0880F51
:100AE000991F865D9E4FFC018081918128173907EF
:100AF00051F4809145018F5F8093450180914601BB
:100B00008F5F80934601809147018F5F80934701FB
:100B100011C080E290E0FC018081882354F481E0E0
:100B200090E09A83898305C01A82198203C000006D
:100B300001C0000089819A818130910591F0823055
:100B400091051CF4892B39F02CC08230910579F085
:100B5000039709F126C060E070E0CB010E94040316
:100B600020C060E070E0CB010E9404031AC08091B5
:100B70004501882F90E0880F991F880F991F8E5E7E
:100B80009E4FFC0180819181A281B381BC01CD0186
:100B90000E94040306C060E070E0CB010E940403E1
:100BA000000089819A810F900F90DF91CF91089575
:100BB000CF93DF9300D0CDB7DEB79A838983898145
:100BC0009A81892B51F485E290E030914401209183
:100BD00043012323FC012083000089819A810F9027
:100BE0000F90DF91CF9108950F931F93CF93DF93D1
:100BF000CDB7DEB767970FB6F894DEBF0FBECDBF97
:100C000081E290E0FC01108282E290E02FEFFC0193
:100C1000208384E290E02FE7FC01208385E290E0CE
:100C200020E8FC01208387E290E020EFFC01208394
:100C300088E290E02FE0FC01208388E0E6E3F1E029
:100C4000DE01509601900D928A95E1F784E090E0E4
:100C50009E878D878FEF8F878F8580934C0188ECDF
:100C600090E0A0E0B0E080934D0190934E01A093FE
:100C70004F01B093500180914D0190914E01A09190
:100C80004F01B09150018093510190935201A09374
:100C90005301B09354018BEC93E0909356018093F1
:100CA00055011092570188EC90E0A0E0B0E08093ED
:100CB000580190935901A0935A01B0935B01809120
:100CC000580190915901A0915A01B0915B01809314
:100CD0005C0190935D01A0935E01B0935F0181EE92
:100CE00094E090936101809360011092620188EC1E
:100CF00090E0A0E0B0E08093630190936401A09342
:100D00006501B09366018091630190916401A091A7
:100D10006501B09166018093670190936801A0938B
:100D20006901B0936A0188ED95E090936C0180931E
:100D30006B0110926D0188EC90E0A0E0B0E0809330
:100D40006E0190936F01A0937001B0937101809137
:100D50006E0190916F01A0917001B091710180932B
:100D6000720190937301A0937401B09375018AE2AC
:100D700095E0909377018093760188899989FC01A9
:100D800081819281A381B48189839A83AB83BC835F
:100D900081E090E0A0E0B0E08D839E83AF83B887D0
:100DA0002BC08D819E81880F991F9E012F5F3F4F21
:100DB000820F931F0F96FC0180819181FC0121819C
:100DC00032814381548189819A81AB81BC81BC018C
:100DD000CD010E94B702DC01CB0189839A83AB83EA
:100DE000BC838D819E81AF81B8850196A11DB11D07
:100DF0008D839E83AF83B8878D859E859C0140E05F
:100E000050E08D819E81AF81B88582179307A4073A
:100E1000B50738F20E94A40389819A81AB81BC8115
:100E2000BC01CD010E949E000E94CC0019861A864A
:100E30001B861C86A6C089859A85880F991F9E01EE
:100E40002F5F3F4F820F931F0F96FC01808191818E
:100E5000FC01258136814781508589859A85880FD7
:100E6000991FBE016F5F7F4F860F971F0F96FC0182
:100E700080819181FC0181819281A381B4812817B5
:100E800039074A075B0709F045C089859A85880FAD
:100E9000991F9E012F5F3F4F820F931F0F96FC01FA
:100EA0000081118189859A85880F991F9E012F5F86
:100EB0003F4F820F931F0F96FC0180819181FC01AF
:100EC0002185328589859A85880F991FAE014F5FEC
:100ED0005F4F840F951F0F96FC0180819181FC016B
:100EE0008081082E000C990BF9010995F801808387
:100EF00089859A85880F991F9E012F5F3F4F820F2A
:100F0000931F0F96FC0180819181FC01158216824E
:100F10001782108689859A85880F991F9E012F5FF9
:100F20003F4F820F931F0F96FC016081718189856D
:100F30009A85880F991F9E012F5F3F4F820F931F45
:100F40000F96FC0180819181FC01258136814781CA
:100F5000508589819A81AB81BC81820F931FA41F28
:100F6000B51FFB0185839683A783B08789859A8502
:100F7000AB85BC850196A11DB11D89879A87AB877A
:100F8000BC878D859E859C0140E050E089859A85CF
:100F9000AB85BC8582179307A407B50708F44BCF30
:100FA000000080913E018823E1F310923E013ECF84
:100FB000A1E21A2EAA1BBB1BFD010DC0AA1FBB1F5D
:100FC000EE1FFF1FA217B307E407F50720F0A21BCF
:100FD000B30BE40BF50B661F771F881F991F1A943C
:100FE00069F760957095809590959B01AC01BD0166
:100FF000CF010895EE0FFF1F0024001C0BBE0790C9
:10100000F691E02D09940E94B00808F481E008955B
:101010000E941C080C94EB080E94E40858F00E94FF
:10102000DD0840F029F45F3F29F00C94D4085111F9
:101030000C941F090C94DA080E94FC0868F39923A9
:10104000B1F3552391F3951B550BBB27AA276217C4
:101050007307840738F09F5F5F4F220F331F441FD1
:10106000AA1FA9F335D00E2E3AF0E0E832D0915005
:101070005040E695001CCAF72BD0FE2F29D0660FF2
:10108000771F881FBB1F261737074807AB07B0E835
:1010900009F0BB0B802DBF01FF2793585F4F3AF03B
:1010A0009E3F510578F00C94D4080C941F095F3FC3
:1010B000E4F3983ED4F3869577956795B795F795C1
:1010C0009F5FC9F7880F911D9695879597F90895A9
:1010D000E1E0660F771F881FBB1F62177307840745
:1010E000BA0720F0621B730B840BBA0BEE1F88F754
:1010F000E09508950E9481086894B1110C941F092D
:1011000008950E94040988F09F5798F0B92F9927F5
:10111000B751B0F0E1F0660F771F881F991F1AF0E2
:10112000BA95C9F714C0B13091F00E941E09B1E020
:1011300008950C941E09672F782F8827B85F39F01F
:10114000B93FCCF3869577956795B395D9F73EF47B
:1011500090958095709561957F4F8F4F9F4F089523
:10116000990F0008550FAA0BE0E8FEEF16161706B8
:10117000E807F907C0F012161306E407F50798F020
:10118000621B730B840B950B39F40A2661F0232B39
:10119000242B252B21F408950A2609F4A140A695B5
:1011A0008FEF811D811D089597F99F6780E870E09A
:1011B00060E008959FEF80EC089500240A941616CD
:1011C000170618060906089500240A941216130635
:1011D000140605060895092E0394000C11F48823C3
:1011E00052F0BB0F40F4BF2B11F460FF04C06F5FDF
:1011F0007F4F8F4F9F4F089557FD9058440F551FB5
:1012000059F05F3F71F04795880F97FB991F61F088
:101210009F3F79F087950895121613061406551FFF
:10122000F2CF4695F1DF08C0161617061806991F6B
:10123000F1CF86957105610508940895E894BB2760
:1012400066277727CB0197F908950E94B00808F424
:101250008FEF08950E943D090C94EB080E94DD0871
:1012600038F00E94E40820F0952311F00C94D40883
:101270000C94DA0811240C941F090E94FC0870F3E6
:10128000959FC1F3950F50E0551F629FF001729F2B
:10129000BB27F00DB11D639FAA27F00DB11DAA1F3A
:1012A000649F6627B00DA11D661F829F2227B00D87
:1012B000A11D621F739FB00DA11D621F839FA00D12
:1012C000611D221F749F3327A00D611D231F849F62
:1012D000600D211D822F762F6A2F11249F575040B9
:1012E0009AF0F1F088234AF0EE0FFF1FBB1F661F34
:1012F000771F881F91505040A9F79E3F510580F0FD
:101300000C94D4080C941F095F3FE4F3983ED4F387
:10131000869577956795B795F795E7959F5FC1F7A0
:10132000FE2B880F911D9695879597F90895F8944F
:02133000FFCFED
:101332000000000200000000750000000000010033
:1013420000000000DC43A4D082430000DC43000024
:10135200C4430000DC43A4D0824302000300050022
:0E1362000A000B000F004C01570162016D01E3
:00000001FF
